:020000040800F2
:1000000008070020910100089B0E0008B50D0008AC
:10001000990E000895040008F11300080000000084
:10002000000000000000000000000000D3120008E3
:100030009704000800000000D1120008D512000843
:10004000AB010008AB010008AB010008AB010008E0
:10005000AB010008AB010008AB010008AB010008D0
:10006000AB010008AB010008AB010008AB010008C0
:10007000AB010008AB010008AB010008AB010008B0
:10008000AB010008AB010008AB010008AB010008A0
:10009000AB010008AB010008AB010008AB01000890
:1000A000AB010008AB010008AB010008AB01000880
:1000B000AB010008AB010008AB010008AB01000870
:1000C000AB010008AB010008AB010008AB01000860
:1000D000AB010008AB010008AB010008AB01000850
:1000E000AB010008AB010008AB01000800F002F80A
:1000F00000F03FF80AA090E8000C82448344AAF183
:100100000107DA4501D100F034F8AFF2090EBAE880
:100110000F0013F0010F18BFFB1A43F0010318473B
:100120004C1400006C140000103A24BF78C878C149
:10013000FAD8520724BF30C830C144BF04680C60ED
:10014000704700000023002400250026103A28BF35
:1001500078C1FBD8520728BF30C148BF0B60704739
:10016000642900F07780002070471FB51FBD10B5CF
:1001700010BD00F05DF91146FFF7F7FF01F064F9DB
:1001800000F07BF903B4FFF7F2FF03BC01F041F983
:100190000948804709480047FEE7FEE7FEE7FEE71B
:1001A000FEE7FEE7FEE7FEE7FEE7FEE70448054957
:1001B000054A064B7047000037130008ED000008A1
:1001C0000801002008070020080300200803002081
:1001D000704700000FB4044910B503AA029800F05C
:1001E000F9F810BC5DF814FB000000202DE9F04187
:1001F0000E460446002020622046E168884730B35E
:10020000252805D0D4E901219047206A401CF2E757
:10021000E168204600278847050018D0A5F1410075
:10022000192802D820354FF4006732462946204667
:100230002760FFF795FF40B1012804D0F61D26F096
:1002400007060836D8E7361DD6E72846DAE7206ADB
:10025000BDE8F0812DE9F0410646002410687529BB
:10026000314616A510D0AFF30080002802DA4042D4
:1002700013A507E031688A0701D512A502E04907F6
:1002800004D511A5012401E0AFF3008000210A226A
:1002900006F1240709E0B0FBF2FCB0FBF2F302FB2D
:1002A0001C00303078541846491C0028F3D12346EE
:1002B0002A463046BDE8F04100F033B800000000A7
:1002C0002D0000002B000000200000004FF0000275
:1002D00000B5134694469646203922BFA0E80C503C
:1002E000A0E80C50B1F12001BFF4F7AF090728BF17
:1002F000A0E80C5048BF0CC05DF804EB890028BF93
:1003000040F8042B08BF704748BF20F8022B11F0BB
:10031000804F18BF00F8012B704770477047704737
:1003200070472DE9F0470D4699469246044600F184
:1003300024080168880604D5E06921F010012160D5
:1003400000E00120A84201DD471B00E00027A16971
:100350007A1902EB0900081AA0612078C00602D4BD
:100360002046AFF30080002608E0D4E901211AF806
:1003700006009047206A401C761C20624E45F4DB44
:100380002078C0060AD52046AFF3008006E0D4E905
:10039000012130209047206A401C2062381EA7F1BE
:1003A0000107F4DC07E0D4E9012118F805009047C3
:1003B000206A401C2062281EA5F10105F3DC2046BE
:1003C000AFF300802078000602D50220BDE8F08758
:1003D0000120FBE7074B70B50D467B4400F011F898
:1003E0000446284600F020F810B14FF0FF3070BDF1
:1003F000204670BD5310000001694A1C0261087854
:10040000704700B58FB0CDE9013100210591054954
:100410007944CDE9031011466846FFF7E7FE0FB0B7
:1004200000BD0000E5FFFFFF007B00F0800070478B
:10043000754600F02BF8AE4605006946534620F09D
:100440000700854618B020B5FFF7B0FEBDE8204094
:100450004FF000064FF000074FF000084FF0000B80
:1004600021F00701AC46ACE8C009ACE8C009ACE833
:10047000C009ACE8C0098D46704710B50446AFF31B
:1004800000802046BDE81040FFF77CBE0048704762
:10049000A8000020FEE7704772B6FEE770B504467C
:1004A00000F008F90546601C02D0044800780444B6
:1004B00000F000F9401BA042FAD370BD0C000020F0
:1004C0002DE9F84FDFF8B8910024A9F1040B234679
:1004D0000F2709F1040AABF1040EC9E00125A5407C
:1004E0002A40AA427DD1674ED1F804C0ACEB060881
:1004F000B44532D014DCBCF1030F3AD009DCBCF1B6
:10050000000F2AD0BCF1010F1CD0BCF1020F31D179
:100510001DE0BCF1110F17D0BCF1120F2AD119E068
:10052000B8F5881F19D006DCB8F5803F15D0B8F5AE
:10053000801F1FD111E0B8F5001F0ED0B8F5041FC1
:1005400018D10AE0CB6815E0CB681B1D12E0CB6820
:1005500008330FE0CB680C330CE08B682BB1012B18
:100560004FF0080303D0456104E0042302E0056175
:1005700000E00023FF2A01D8064601E000F104064E
:100580004FEA840501D9A5F12005D6F8008007FAC5
:1005900005FC28EA0C0803FA05F548EA0508C6F840
:1005A00000804D68ED0062D5374DAE6946F001061A
:1005B000AE61AD6924F0030605F001050095334DE9
:1005C00006EB050CDCF80850A607360F07FA06F80C
:1005D00025EA0805DFF8B880404503D14FF0000850
:1005E00017E044E0DFF8AC80404502D14FF001084D
:1005F0000FE0DFF8A480404502D14FF0020808E088
:10060000DFF89880404502D14FF0030801E04FF039
:10061000040808FA06F848EA0508CCF808804D688E
:10062000D9F80060ED024D4601D5164300E096432F
:100630002E604D68DAF80060AD02554601D51643CC
:1006400000E096432E604D68DBF80060AD035D4628
:1006500001D5164300E096432E604D68DEF8006039
:10066000ED03754601D5164300E096432E60641CE9
:100670000D682A46E5407FF431AFBDE8F88F0000F1
:100680000804014000001110001002400000014069
:1006900000080140000C014000100140001401401E
:1006A0008068084000D0012070470AB1016170479E
:1006B0000904FBE701488068704700000C00002037
:1006C0000248816802781144816070470C00002064
:1006D000074810B5016841F010010160032000F0E7
:1006E00067F80F2000F006F800F024F8002010BD95
:1006F0000020024070B50D4D04464FF47A71287801
:10070000B1FBF0F00A490968B1FBF0F000F0D4FA4F
:1007100048B9102C07D200222146501E00F028F8BC
:1007200000206C6070BD012070BD00000C00002036
:10073000180000200C4808B5816941F00101816171
:10074000816901F001010091C16941F08051C161ED
:10075000C06900F0805000900448416821F0E061D9
:1007600041F00071416008BD0010024000000140EE
:10077000F0B40E4B1B680C46C3F30223C3F107050C
:10078000042D00D90425191D072901D2002300E0FA
:10079000DB1E012606FA05F1491E214099409E40C4
:1007A000761E16403143F0BC00F023BE0CED00E095
:1007B000064900F0070208684FF6FF03184040EAB8
:1007C0000220034A10430860704700000CED00E06F
:1007D0000000FA052DE9F0470F46050061D0434EB1
:1007E000306800F00700B84209D2306820F00700F6
:1007F00038433060306800F00700B84251D12868B3
:100800003B4C810712D5400703D5606840F4E06097
:1008100060602878000703D5606840F4605060602D
:100820006068A96820F0F000084360602878C0077D
:1008300028D06868012810D02168022810D08907C4
:1008400000292EDA616821F0030101436160FFF79E
:1008500031FF804641F288390DE021688903EFE7D6
:100860008901EDE7FFF726FFA0EB0801494502D912
:100870000320BDE8F0876068696800F00C00B0EB09
:10088000810FEFD1306800F00700B8420BD9306813
:1008900020F0070038433060306800F00700B842AD
:1008A00001D00120E5E72878400705D56068E968B0
:1008B00020F4E060084360602878000706D560688F
:1008C000296920F4605040EAC100606000F03EF801
:1008D0006168084AC1F30311515CC84006490860C9
:1008E00006480068FFF706FF0020C2E7002002402C
:1008F00000100240521500081800002010000020CF
:1009000001480068704700001800002004480549AD
:1009100000684968044AC1F30221515CC84070472D
:100920001800002000100240621500080448054924
:1009300000684968044AC1F3C221515CC84070474D
:100940001800002000100240621500080E4A51688D
:100950000E4801F00C03042B11D0082B0FD10C48CA
:10096000C1F38343C903C05C0AD55168084AC1F387
:100970004041921E515C054A5043B0FBF1F0704774
:1009800004494843704700000010024000127A00FA
:100990004215000800093D002DE9F84F040070D011
:1009A0002078C04DC00749D06868C0F38100012895
:1009B00007D06868C0F38100022809D16868C003C5
:1009C00006D52868800339D560680028E7D035E06F
:1009D0006068B0F5803F0BD010B1B0F5A02F11D0FA
:1009E000286820F480302860286820F4802002E005
:1009F000286840F480302860606890B1FFF75AFEA4
:100A000006460AE0286840F480202860F0E700BF2E
:100A1000FFF750FE801B642873D828688003F7D541
:100A20000CE0FFF747FE064605E000BFFFF742FE79
:100A3000801B6428F0D828688003F7D420789A4E69
:100A400080074FF001094FF0000839D5686810F0B1
:100A50000C0F07D06868C0F38100022809D16868CC
:100A6000C00306D42868800714D52069012808D15E
:100A700010E02069B0B1C6F80090FFF71BFE0746F2
:100A800005E00AE1FFF716FEC01B0228C4D828685B
:100A90008007F7D52868616920F0F80040EAC100B6
:100AA00028600DE0C6F80080FFF704FE074604E06A
:100AB000FFF700FEC01B022823D828688007F7D460
:100AC000207800072CD57948A169D9B1C0F80090E9
:100AD000FFF7F0FD074604E0FFF7ECFDC01B02281E
:100AE0000FD8686A8007F7D571484FF4FA5100684B
:100AF000B0FBF1F0009000BF0098411E0091FAD2C7
:100B00000EE080E0C0F80080FFF7D4FD074604E067
:100B1000FFF7D0FDC01B022875D8686A8007F7D49C
:100B20002078400760D5E8690027C00008D4E8694C
:100B300040F08050E861E869012700F080500090A3
:100B40005C480168C90513D40168834641F480718B
:100B50000160FFF7AFFD824606E000BFFFF7AAFD88
:100B6000A0EB0A0064284ED8DBF80000C005F5D5DC
:100B7000E06801280AD008B1052813D0286A20F0BF
:100B800001002862286A20F0040002E0286A40F090
:100B900001002862E06841F2883B98B1FFF78AFDC6
:100BA00082460BE0286A40F004002862EEE700BFAE
:100BB000FFF780FDA0EB0A0159455AD8286A800743
:100BC000F6D50CE0FFF776FD824605E0FFF772FDF3
:100BD000A0EB0A0159454CD8286A8007F6D41FB10A
:100BE000E86920F08050E861E06988B36968C1F382
:100BF0008101022944D00228C6F8608004D0FFF7A2
:100C000059FD044638E034E0FFF754FD074604E0A0
:100C1000FFF750FDC01B02282BD828688001F7D4AD
:100C2000206AB0F5803F05D16868A16820F40030E3
:100C300008436860D4E908010843696821F4741125
:100C400008436860C6F86090FFF734FD044606E08C
:100C500025E000BFFFF72EFD001B022809D82868F9
:100C60008001F7D51BE000BFFFF724FD001B022821
:100C700002D90320BDE8F88F28688001F4D40EE083
:100C80000128F7D06868226A00F48031914204D1CB
:100C9000616A00F47010884201D00120EAE7002068
:100CA000E8E7000000100240000042428004424297
:100CB000180000200070004010B5401EB0F1807F89
:100CC00001D3012010BD4FF0E02460610F216017B7
:100CD00000F08FFB0020A06107202061002010BDE4
:100CE00070B5040004D094F84100002510B106E06E
:100CF000012070BD84F84050204600F023F82420E5
:100D000084F841002068C16821F40051C160204688
:100D100000F012FB2068016921F490410161206814
:100D2000416921F02A0141612068C16841F4005104
:100D3000C1606564202084F8410084F84200656346
:100D4000002070BD30B585B0002400940194029459
:100D5000039400681449884223D11448C16941F4BE
:100D60000031C161C16901F400310491816941F030
:100D70000401816180690E4D00F00400049004209C
:100D80000090022001900320039069462846FFF757
:100D900097FB0820CDE90004694628460294FFF736
:100DA0008FFB05B030BD0000004400400010024041
:100DB00000080140FEE700002DE9F04186B0002464
:100DC00024480094019402940394816941F0100135
:100DD0008161816901F010010491816941F0200174
:100DE0008161816901F020010491816941F0040170
:100DF00081618069184F00F004004FF48045049031
:100E0000002229463846FFF750FCDFF850800022C8
:100E100030214046FFF749FC009502260125039644
:100E2000CDE9015469463846FFF74AFBE8038DE8EF
:100E3000310069463846FFF743FB3020CDE9000515
:100E4000CDE9024669464046FFF73AFB06B0BDE8E9
:100E5000F081000000100240001001400008014035
:100E60000C4810B50A4901604FF4E131416000219E
:100E700081600C22C160C0E904128161C161FFF789
:100E80002FFF002803D0BDE81040FFF705BB10BDC1
:100E90000044004044000020FEE7FEE70149085CF2
:100EA000704700008C0000200020044902460A54CC
:100EB000401CC0B20928FAD3704700008C00002003
:100EC0002DE9F84F06460120ADF80000244C002122
:100ED0006170ADF800004FF48049DFF88880224D42
:100EE0004FF4004A4FF6FF7730E000BFBDF8000036
:100EF000304201D0012200E0002249464046FFF77F
:100F0000D4FB012210212846FFF7CFFB052000F07B
:100F100081FA002210212846FFF7C7FB052000F0C8
:100F200079FA012210212846FFF7BFFB51464046BF
:100F3000FFF7B6FB20B16078BDF800100843607081
:100F4000BDF8000007EA4000ADF80000BDF8000061
:100F5000FF28CBD9BDE8F84F102000F05BBA0000A5
:100F60008C000020001001400008014070B5FFF720
:100F70009BFF00F091F80E480E4D0D4BB0F803208A
:100F80000C48AD1D012182800020064613F10903A3
:100F900015F81040641E01FA04F4144201D11954EA
:100FA00000E01E54401CC0B21028F1D370BD0000F8
:100FB0008C0000201C0000200348C078012801D1CB
:100FC0000249487070470000950000201C00002076
:100FD00010B5174C002220212046FFF766FB102099
:100FE00000F018FA0120FFF76BFF4320FFF768FFBE
:100FF0000020FFF765FF0120FFF762FF0020FFF7E9
:101000005FFF0020FFF75CFF0020FFF759FF002083
:10101000FFF756FF0020FFF753FF01222021204653
:10102000FFF743FBBDE81040102000F0F3B90000CB
:101030000008014010B5174C002220212046FFF780
:1010400034FB102000F0E6F90120FFF739FF4320C0
:10105000FFF736FF0020FFF733FF0020FFF730FFD8
:101060005A20FFF72DFF5A20FFF72AFF5A20FFF7DB
:1010700027FF5A20FFF724FF5A20FFF721FF012204
:1010800020212046FFF711FBBDE81040102000F0A2
:10109000C1B90000000801402DE9FC4700208DF88F
:1010A00000000126ADF804602D4C024620212046A8
:1010B000FFF7FBFA2B4D2878FFF702FF6878FFF760
:1010C000FFFE02208DF800004FF40048DFF89890F2
:1010D000264D4FF6FF7737E0ADF8046028E0012297
:1010E00010212046FFF7E1FA052000F093F90022D5
:1010F00010212046FFF7D9FA052000F08BF90122D4
:1011000010212046FFF7D1FA41464846FFF7C8FABA
:1011100040B19DF80000BDF80410285C08439DF81C
:1011200000106854BDF8040007EA4000ADF8040060
:10113000BDF80400FF28D2D9102000F06BF99DF80B
:101140000000401C8DF800009DF800000928C3D362
:1011500002B02046BDE8F04701222021FFF7A5BAE2
:10116000000801401E000020001001408C000020FB
:1011700070B50E4D002220212846FFF796FA0C4C40
:101180002078FFF79DFE6078FFF79AFE012220216C
:101190002846FFF78AFA07484178A01E732902D033
:1011A0000121017070BD0221FBE700000008014031
:1011B0001E0000208C00002010B500F00FF800F099
:1011C0000DF800F00BF8FFF703FF00F02DF800F02A
:1011D00059F8BDE81040FFF72DBF000010B5114CC5
:1011E000002220212046FFF760FA102000F012F9BB
:1011F0000120FFF765FE4220FFF762FE0020FFF7A7
:101200005FFE0020FFF75CFE0020FFF759FE012281
:1012100020212046FFF749FABDE81040102000F0D9
:10122000F9B800000008014010B5154C002220213B
:101230002046FFF73AFA0120FFF742FE4420FFF76D
:101240003FFE0020FFF73CFE0120FFF739FEEE20B5
:10125000FFF736FE0020FFF733FE0020FFF730FED9
:101260000020FFF72DFE0020FFF72AFE012220219B
:101270002046FFF71AFABDE81040102000F0CAB867
:101280000008014010B5114C002220212046FFF734
:101290000CFA102000F0BEF80120FFF711FE4D20DF
:1012A000FFF70EFE0020FFF70BFE0020FFF708FE01
:1012B0000120FFF705FE012220212046FFF7F5F966
:1012C000BDE81040102000F0A5B800000008014063
:1012D00070477047FFF7F4B930B58FB028216846E2
:1012E000FEF7F4FF14210AA8FEF7F0FF012108041D
:1012F000CDE900100024029402250491CDE90750A5
:101300004FF4E01009906846FFF746FB08B172B64B
:10131000FEE70F20CDE90A054FF48060CDE90C40CF
:1013200002210AA80E94FFF755FA002801D072B6E0
:10133000FEE70FB030BD704770B504460068016924
:10134000E26821F44051114301612169A06808431A
:10135000616908432168CA6841F20C639A430243F9
:10136000CA6020684169A26921F44071114341615A
:101370001E492068884202D1FFF7D8FA01E0FFF742
:10138000C5FA00EBC00101EB001260686421800027
:10139000B2FBF0F3B3FBF1F36FF018067343B2FB4B
:1013A000F0F5B2FBF0F605EB8305322303EB0515F0
:1013B000B5FBF1F5B6FBF1F605F0F00505EB06150A
:1013C000B2FBF0F6B2FBF0F0B0FBF1F06FF01802F8
:1013D000504306EB800003EB0010B0FBF1F02168F6
:1013E00000F00F002844886070BD00000038014004
:1013F000FEE70907090E002804DB00F1E02080F871
:101400000014704700F00F0000F1E02080F8141D78
:101410007047704710B50446FFF772FA0349B0FBF6
:10142000F1F16143491EFDD210BD000000093D00ED
:1014300004490A685206FCD5024AC1B2121D116065
:101440007047000000440040FFF742F9FFF744FFF7
:10145000FFF7B2FCFFF704FDFFF7AEFE254E0027B5
:10146000254D264CFFF782FDFFF7A6FD30780128B9
:1014700001D1FFF77DFE2878022803D027806780FE
:10148000A7801AE00720FFF709FD80382080082098
:10149000FFF704FD803840426080012800D167805A
:1014A0000520FFF7FBFC8038A0800620FFF7F6FC44
:1014B00080384042E080012800D1E780B4F9001074
:1014C0000FA0FEF787FEB4F9021010A0FEF782FE0F
:1014D000B4F9041010A0FEF77DFEB4F9061011A0B7
:1014E000FEF778FE297813A0FEF774FE6420FEF75D
:1014F000D5FFB7E71D0000201C00002004000020DD
:101500005053325F4C583A25640D0A005053325FF5
:101510004C593A25640D0A005053325F52583A250F
:10152000640D0A005053325F52593A25640D0A0D7A
:101530000A0000004D4F44453A25640D0A000000A2
:10154000010202030405060708090A0B0C0D0E0F21
:101550001010000000000000000001020304060754
:101560000809000000000102030400008C150008B7
:10157000000000204400000028010008D0150008E9
:1015800044000020C40600004401000800000000E0
:10159000000000000000000001000000100000003A
:1015A000000000000024F4000000014200000100DF
:1015B00002000300040005000600070008000900FF
:1015C0000A000B000C000D000E000F0010000000C0
:04000005080000ED02
:00000001FF
