:020000040800F2
:10000000D0060020A5020008C11000083910000821
:10001000BD1000086103000875140008000000000E
:10002000000000000000000000000000591400085B
:100030006503000800000000551400085D14000866
:10004000BF020008BF020008BF020008BF0200088C
:10005000BF020008BF020008BF020008BF0200087C
:10006000BF020008BF020008BF020008BF0200086C
:10007000BF020008BF020008BF020008BF0200085C
:10008000BF02000800000000BF020008BF02000815
:10009000BF020008BF020008BF020008BF0200083C
:1000A000BF020008BF020008BF020008BF0200082C
:1000B000BF020008BF020008BF020008BF0200081C
:1000C000BF020008BF020008BF020008BF0200080C
:1000D000BF020008BF020008BF020008BF020008FC
:1000E000BF020008BF020008BF020008BF020008EC
:1000F000BF020008BF020008BF02000800000000A5
:1001000000000000BF02000800000000BF0200085D
:10011000BF02000800000000BF020008BF02000884
:10012000BF020008BF020008BF020008BF020008AB
:10013000BF0200080000000000000000BF0200082D
:10014000BF020008BF02000800000000000000001D
:10015000000000000000000000000000000000009F
:10016000000000000000000000000000BF020008C6
:10017000BF020008000000000000000000000000B6
:1001800000000000BF0200080000000000000000A6
:10019000000000000000000000000000000000005F
:1001A0000000000000000000BF020008BF020008BD
:1001B000BF020008BF020008BF02000800000000E4
:1001C00000000000BF020008000000000000000066
:1001D000BF020008BF02000800F002F800F052F869
:1001E00014A696E8000CB244B344DA4501D100F0FD
:1001F00049F8BAE80F000FA696E83000A5EB040511
:1002000004EB0607AAEB0704A7F101074FEA15154F
:100210004FEA3414A4F10104AC4201D300F032F8E7
:1002200013F0010F18BFFB1A43F0010300F001F8AF
:10023000DBE718476013000080130000103A24BF6A
:1002400078C878C1FAD8520724BF30C830C144BF3B
:1002500004680C6070470000704700000023002411
:1002600000250026103A28BF78C1FBD8520728BFC6
:1002700030C148BF0B6070471FB501F075F91FBD55
:1002800010B510BD00F031F81146FFF7F5FF01F091
:10029000F3F800F04FF803B4FFF7F2FF03BC00F0EF
:1002A00057F800000948804709480047FEE7FEE785
:1002B000FEE7FEE7FEE7FEE7FEE7FEE7FEE7FEE716
:1002C00004480549054A064B7047000061140008C0
:1002D000D9010008D0000020D0060020D002002064
:1002E000D0020020704770477047754600F02CF828
:1002F000AE4605006946534620F00700854618B013
:1003000020B5FFF7DDFFBDE820404FF000064FF0BD
:1003100000074FF000084FF0000BAC46ACE8C009F6
:10032000ACE8C009ACE8C009ACE8C00921F007019D
:100330008D46704710B50446AFF300802046BDE8F7
:100340001040FFF7A8BF00000048704730000020B1
:1003500001491820ABBEFEE72600020070470000EE
:10036000FEE7000070470000F0B581B04EF21805BE
:10037000CEF200052E68044600F01AF9AA2104FB0B
:1003800001F7BE42044617D200F012F9A042FBD09A
:10039000F01B00F5243000F5016000BF2968884299
:1003A00013D22968884210D2296888420DD2296860
:1003B0008842F3D309E000BFF61B00BF28688642DD
:1003C00003D200F0F5F8A042F8D001B0F0BD000073
:1003D000B0B5044600F0ECF8054640F20000C2F269
:1003E00000004068611C18BF044400BF00F0E0F842
:1003F000401BA042FAD3B0BD2DE9F04F82B00D688A
:10040000002D00F0C58000F13847860546EA9727A1
:1004100041F20046C4F60006062240F2004EB04209
:1004200008BF0522C4F2010E052F38BF3A464FF02F
:10043000000C012400270026009209E00D68013617
:1004400035FA06F207F102070CF1040C00F0A08067
:1004500004FA06FB15EA0B08F0D0D1F804A0032338
:100460000AF003056A1EBB40012A6FEA03090FD890
:100470008268CB6802EA0902BB401A438260426884
:10048000CAF3001322EA0B02B3401A43426003E0AE
:10049000032D01D103251FE0C2688B6802EA09021F
:1004A000BB401A43022DC26016D16FF0030202EA6C
:1004B000560202440CF01C050F23D2F820A003FAC8
:1004C00005FB0B692AEA0B0AAB4043EA0A031362F5
:1004D000D1F804A00AF00305026805FA07F302EA5E
:1004E00009021A431AF4403F0260A7D041F26003A8
:1004F000C4F202031A684FF6084A42F001021A6079
:100500001A68CFF6FF7A02F001020192019A26F0F2
:100510000302724452F80A900CF00C050F23009C61
:10052000AB4029EA030304FA05F52B4342F80A30ED
:10053000DEF808204B6842EA080540F20C49DC026C
:1005400058BF22EA0805CEF80850C4F20109D9F8CC
:1005500000209D0242EA080458BF22EA0804C9F8B4
:100560000040DEF804209D0342EA080458BF22EA56
:100570000804CEF80440DEF80020DB0342EA080459
:1005800058BF22EA0804CEF80040012456E700BF15
:1005900002B0BDE8F08F00000069084018BF0120DC
:1005A000704700001823002A08BF2823C150704755
:1005B00040F2C800C2F200000068704740F200003C
:1005C00040F2C801C2F20000C2F2000140680A68AD
:1005D000104408607047000080B5032000F078F8F0
:1005E0000F2000F009F800281CBF012080BD00F09A
:1005F00029F8002080BD000070B540F20006C2F26C
:1006000000067168E1B1044640F22C00C2F200001D
:100610004FF47A720068B2FBF1F1B0FBF1F000F038
:10062000F5FC0F2C4FF0010508D838B94FF0FF301A
:1006300021460022002500F01FF83460284670BDD6
:10064000012070BD82B041F25800C4F202008168FE
:1006500041F001018160816801F00101019101997E
:10066000016841F080510160006800F08050009006
:10067000009802B000F0D0B810B54EF60C5CCEF287
:10068000000CDCF80030C3F3022E8EF00704042CBB
:1006900028BF0424BEF103034FF0FF3E0EFA04F41A
:1006A00038BF0023A14399400EFA03F39A43114344
:1006B00000F00F0200F160430901043A03F56443BE
:1006C0006244002848BF02F10C03197010BD0000FD
:1006D0004EF60C51CEF200010A684FF6FF031A40A5
:1006E00060F30A2242F0806040F0FD7008607047BD
:1006F000B0F5007F42D0002840F0808047F214001F
:10070000C4F2000050F8141CC26E01F4C06122F45F
:100710008072B1F5806FC2662ED150F8141C012290
:1007200062F34A2140F8141C40F22C01C2F200018D
:100730000968322251434DF68362C4F21B32A1FB99
:100740000212910C0268520511D54A1C0FD00268A2
:1007500052050CD559B10268520508D5012906D0B9
:100760000268520503D50229A1F10401EAD100680B
:10077000400544BF032070470020704747F2140033
:10078000C4F2000050F8141CC26E01F4C06142F4BF
:100790008072B1F5806FC266EED150F8141C012250
:1007A00062F34A2140F8141C40F22C01C2F200010D
:1007B0000968322251434DF68362C4F21B32A1FB19
:1007C0000212910C0268520511D54A1C0FD0026822
:1007D00052050CD559B10268520508D5012906D039
:1007E0000268520503D50229A1F10401EAD100688B
:1007F000400544BF03207047BEE700BF47F2140026
:10080000C4F2000050F8141C022262F34A2140F89E
:10081000141C00207047000047F20800C4F20000DA
:10082000016841F480410160704700002DE9F04704
:10083000002865D042F2000AC4F2020A0446DAF83F
:1008400000000D4600F00F0088420CD2DAF80000DC
:1008500020F00F002843CAF80000DAF8000000F08A
:100860000F00A8424CD1216841F20808C807C4F221
:10087000020803D1880740F1D480B9E060680228FB
:100880003AD0032840D158F8082C920138D5D8F82E
:100890000420D8F8043042F20046C3F3031302F0F8
:1008A0000302D8F804700133C0F2F406032A04BF2F
:1008B00041F20026C0F27A06B6FBF3F2D8F8043013
:1008C000C7F306277A43C3F34163022707EB4303C9
:1008D000B2FBF3F24BF20043C0F2C4439A425DD93B
:1008E000D8F8002012F0F00F4DD0890756D5A16836
:1008F000002953D147E000BF58F8081C890307D4EA
:100900000120BDE8F08700BF58F8081C4905F7D55D
:10091000D8F8001001F00C0104293FD0D8F80010DD
:1009200001F00C01082939D0D8F8001001F00C01B1
:100930000C2933D1D8F80410D8F8042042F200472B
:10094000C2F3031201F00301D8F804300132C0F2FF
:10095000F407032904BF41F20027C0F27A07B7FB6E
:10096000F2F1D8F80420C3F306235943C2F34162DD
:10097000022303EB4202B1FBF2F14BF20042C0F260
:10098000C44291420AD9D8F80010082262F3071134
:100990004FF00109C8F8001002E000BF4FF0000955
:1009A000D8F8001021F003010843C8F80000FFF751
:1009B000FFFD064641F28837D8F80000616800F074
:1009C0000C00B0EB810F07D0FFF7F2FD801BB8429F
:1009D000F2D90320BDE8F0872168880708D4B9F16F
:1009E000000F1ED0D8F8000020F0F00017E000BF84
:1009F000480705D5D8F8000040F4E060C8F80000CA
:100A0000080706D5D8F80000072262F30D20C8F8C1
:100A10000000D8F80000A26820F0F0001043C8F8E9
:100A20000000DAF8000000F00F00A8421BD9DAF845
:100A3000000020F00F002843CAF80000FFF7B8FDBF
:100A4000064641F2883700BFDAF8000000F00F00D8
:100A5000A84207D0FFF7ACFD801BB842F4D90320B1
:100A6000BDE8F0872168480707D5D8F80000E2689C
:100A700020F4E0601043C8F80000080708D5D8F853
:100A80000000216920F4605040EAC100C8F800006D
:100A9000D8F8000042F20041C0F2F40100F00C006E
:100AA000042808462DD0D8F8000000F00C000828D3
:100AB00041F20020C0F27A0023D0D8F8002002F0E2
:100AC0000C020C2A1CD1D8F80420D8F8043002F00B
:100AD0000302C3F30313D8F804700133032A08BFD9
:100AE0000146B1FBF3F0D8F80410C7F30627C1F3B1
:100AF00041610222784302EB4101B0FBF1F000E0DA
:100B00000020D8F8001041F28252C1F30311C0F660
:100B10000002515C40F22C0201F01F0120FA01F1A9
:100B200040F20000C2F200000068C2F20002116050
:100B3000BDE8F047FFF760BD002804BF0120704703
:100B40002DE9F04182B00446007841F20006C0076A
:100B5000C4F202061ED1207880073DD42078000719
:100B600064D42078400700F187802078800600F167
:100B7000D980E569002D00F04482B06800F00C00D7
:100B80000C2840F03181012D40F09081012002B00D
:100B9000BDE8F081B06800F00C01F068082961D070
:100BA000032281F00C0122EA00000844B0FA80F030
:100BB000400957D16068B0F5803F07D0B0F5A02F4D
:100BC00040F0E480306840F480203060306840F4C9
:100BD00080303060E5E000BFB068F16800F00C00E4
:100BE000042871D001F0030180F00C0081F00201B3
:100BF0000844B0FA80F0400966D1E1683068002905
:100C000000F0E08040F480703060FFF7D1FC0546D2
:100C10003068400500F10A81FFF7CAFC401B02283A
:100C2000F6D9032002B0BDE8F08100BF6169D6F8B3
:100C30009400002900F0948040F00100C6F8940070
:100C4000FFF7B6FC054600BFD6F8940080073FF5D5
:100C500088AFFFF7ADFC401B0228F5D9032002B096
:100C6000BDE8F081306880037FF575AF60680028CB
:100C70007FF471AF3EE000BFB06D5FEAC00808D4FA
:100C8000B06D40F08050B065B06D00F080500190C4
:100C9000019847F20007C4F200073868C0052DD458
:100CA000386840F480703860FFF782FC054600BF6A
:100CB0003868C00522D4FFF77BFC401B0228F7D917
:100CC000032002B0BDE8F0813068400501D5E0683E
:100CD00080B17068216920F0FE4040EA01607060D8
:100CE00040F20000C2F200000068FFF785FC002817
:100CF0003FF434AF012002B0BDE8F081A0680128C4
:100D000008D0052840F0B080D6F8900040F00400EC
:100D1000C6F89000D6F8900040F00100C6F89000A8
:100D2000B0E000BFA169D6F89800002900F08680E5
:100D300040F00100C6F89800FFF73AFC054600BFF6
:100D4000D6F8980080073FF514AFFFF731FC401B41
:100D500002284FF00300F3D902B0BDE8F08100BFD4
:100D600020F00100C6F89400FFF722FC054600BF02
:100D7000D6F8940080077FF5F4AEFFF719FC401B0E
:100D80000228F5D9032002B0BDE8F08131680028BF
:100D900021F480313160316821F48021316000F02C
:100DA000BF80FFF705FC0546306880033FF5D3AEF2
:100DB000FFF7FEFB401B6428F6D9032002B0BDE814
:100DC000F08100BF20F480703060FFF7F1FB054632
:100DD000306840057FF5C2AEFFF7EAFB401B0228F2
:100DE0004FF00300F4D9B7E7306820F0807030602E
:100DF000FFF7DEFB022D05460CD100BF30688001F5
:100E000040F1BA80FFF7D4FB401B02284FF00300EB
:100E1000F4D9A1E73068800140F1EC80FFF7C8FB0E
:100E2000401B02284FF00300F4D995E77068216950
:100E300020F0FE4040EA016070608FE620F0010083
:100E4000C6F89800FFF7B4FB054600BFD6F8980037
:100E500080077FF58EAEFFF7ABFB401B02284FF0FB
:100E60000300F3D978E700BFD6F89010002821F0EE
:100E70000101C6F89010D6F8901021F00401C6F8D0
:100E800090105DD0FFF794FB054641F2883700BF14
:100E9000D6F89000800765D4FFF78AFB401BB84264
:100EA000F6D9032002B0BDE8F08100BFF068216AE6
:100EB00000F003028A427FF41DAF626A6FF00F03F5
:100EC00000F0F00103EB021291427FF413AFA16A2C
:100ED00000F4FE42B2EB012F7FF40CAFE16A00F0A8
:100EE0007842B2EBC16F7FF405AF226B0023CFF6DF
:100EF000E07303EA025200F4C001A2F5001291422D
:100F00007FF4F8AE616B4FF07E4202EA016100F0BF
:100F1000C06001F17E4188427FF4ECAE71E000BF19
:100F2000FFF746FB054600BF306880037FF513AE30
:100F3000FFF73EFB401B64284FF00300F4D90BE79A
:100F4000FFF736FB054641F2883700BFD6F8900020
:100F5000800707D5FFF72CFB401BB8424FF003007A
:100F6000F4D9F9E6B8F1000F3FF5FFADB06D20F010
:100F70008050B065F9E500BFF06848F20C01C0F29E
:100F80009F1104F1200700EA010C8ECF6FF00F00D3
:100F9000D4E90C5400EB02100022CFF6E07241EAD3
:100FA0000C0102EA05520843A2F500124FF07E45FB
:100FB00040EA032005EA0465104305F17E4540EA56
:100FC000C7602843F060306840F080703060F0689F
:100FD00040F08070F060FFF7EBFA04463068800163
:100FE0000FD4FFF7E5FA001B02284FF00300F5D9F4
:100FF000B2E600BFF0684FF6FC71CFF6EE61084034
:10100000F060002002B0BDE8F0810000411E002029
:10101000B0EB116F1CBF012070474EF21002CEF2F0
:10102000000251604EF62351CEF20001F0230B7006
:101030000721906011607047FEE70000F0B587B0AF
:10104000002641F24C000696C4F20200016840F20C
:10105000004441F0200101600168C4F6000401F081
:101060002001019101990168002241F00101016014
:101070000168382501F0010101910199016841F0F1
:10108000020101600068382100F00200019001981F
:101090002046FFF787FA029502AD01272046294630
:1010A000CDE903760596FFF7A7F9402002A9C1C153
:1010B00020462946FFF7A0F907B0F0BDFEE7000083
:1010C000FEE7000040F29001C2F2000108440079FE
:1010D0007047000070B582B040F290060121C2F264
:1010E00000060022ADF806107271ADF80610BDF8CA
:1010F0000610FF293CD840F200450446C4F600051E
:101100000AE000BFBDF806004000ADF80600BDF8DB
:101110000600B0F5807F2BD2BDF80600202110EA32
:101120000402284618BF0122FFF73CFA284608218E
:101130000122FFF737FA0520FFF716F928460821A4
:101140000022FFF72FFA0520FFF70EF928460821A5
:101150000122FFF727FA28464021FFF71DFA002851
:10116000D0D0BDF80600717908437071CAE700BF9E
:10117000102002B0BDE87040FFF7F6B82DE9F04F3F
:101180008BB040F29004C2F2000400202073C4E946
:10119000010000F0C5F840F20A01C2F200010A881D
:1011A000B4F807004B88013A20FA02FC5A1E8B88DB
:1011B00020FA02FE5A1ECB8820FA02F85A1E0B892A
:1011C00020FA02F95A1E4B8920FA02F75A1E8B891F
:1011D00020FA02FA5A1ECB8920FA02F202925A1E13
:1011E0000B8A4D8A20FA02F2013B0A9220FA03F29E
:1011F000013D8E8A099220FA05F20892013ECA8AC0
:1012000020FA06F30793531E0A8B20FA03F3069382
:10121000531E4A8B20FA03F30593531E8A8BC98B06
:10122000013A01390A9D608020FA03F320FA02F2A4
:10123000C8400121049321EA0E0321EA050E099D0D
:10124000019021EA05050995089D21EA090021EA96
:1012500005050A95079D207421EA05050795069D59
:1012600084F83500079821EA070B029F039221EAD0
:101270000505E07584F82800099821EA0709089512
:10128000059D039F607584F82900089821EA0C02E7
:1012900021EA080621EA0A0C21EA0508049D21EA50
:1012A000070A019F207684F82A000A9821EA05059A
:1012B000B943627384F83420A37384F83630E6733C
:1012C00084F8376084F812C084F82CC084F814E0E5
:1012D00084F82DE084F811B084F82EB084F81390CF
:1012E00084F82F90A57684F83050217784F8311057
:1012F00084F8198084F8328084F81BA084F833A025
:10130000A07584F82B000BB0BDE8F08F40F2900080
:10131000C2F20000017C012904BF01214170704725
:1013200070B582B040F20044C4F6000400208DF88D
:1013300007000125204610210022ADF80450FFF7D8
:1013400031F940F20806C2F200063078FFF7C2FE1B
:101350007078FFF7BFFE02208DF807009DF80700A8
:10136000082849D840F29000C2F20000061D0BE0A8
:101370001020FEF7F9FF9DF8070001308DF80700F7
:101380009DF80700092837D2ADF80450BDF80400D5
:10139000FF280BD9ECE700BFBDF804004000ADF812
:1013A0000400BDF80400B0F5807FE1D2204608219A
:1013B0000122FFF7F7F80520FEF7D6FF20460821A7
:1013C0000022FFF7EFF80520FEF7CEFF20460821A8
:1013D0000122FFF7E7F820464021FFF7DDF800285B
:1013E000DAD0BDF804009DF80710715C9DF8072065
:1013F0000843B054D0E700BF20461021012202B0BC
:10140000BDE87040FFF7CEB8B0B540F20044C4F676
:101410000004204610210022FFF7C4F840F208051E
:10142000C2F200052878FFF755FE6878FFF752FEF4
:101430002046102101220124FFF7B4F840F2900168
:10144000C2F20001487973284FF0000008BF02245F
:101450000C70B0BD7047000070470000FFF7AEB8D9
:101460004EF68850CEF20000016841F47001016030
:1014700070470000FEE7000094B0FFF7ADF80024CD
:101480000020CDE90B44CDE90944CDE90744FFF73D
:101490002FF94FF48071099140210A910421022013
:1014A0000F9155210690CDE90D00CDE91010CDE941
:1014B000120006A8FFF740FB20B1EFF3108072B6D0
:1014C000FEE700BF0F2001900320CDE9020401A830
:1014D0000421CDE90444FFF7A9F928B1EFF3108006
:1014E00072B600BFFEE700BFFFF7A8FD40F291040F
:1014F00040F2900540F2AE06C2F20004C2F20005CE
:10150000C2F2000608E000BF0021C6F80610718094
:101510006420B180FEF75CFFFFF730FEFFF7F6FEB8
:101520002078012808BFFFF76FFF28780228EBD149
:101530000720FFF7C7FD8038F0800820FFF7C2FDC5
:10154000B0F17F0118BFC0F1800105203181FFF7A4
:10155000B9FD803870800620FFF7B4FDB0F17F013F
:1015600018BFC0F18001D3E7F1EE100A4FF6FF710A
:10157000C0F2C03120EA010040F04070E1EE100AF4
:10158000704700000000000000000102030406078D
:1015900008090000B8150008000000203000000015
:1015A0003C020008E815000830000020A0060000FA
:1015B0005C020008000000001000000001000000B4
:1015C00001420100020003000400050006000700BC
:1015D000080009000A000B000C000D000E000F00AF
:0815E000100000000024F400DB
:04000005080001D915
:00000001FF
